:1000000012C0189518951895AEC1189518951895A1
:100010001895189518951895189518951895189578
:100020001895189518958FE58DBFC8E3E0E24E2E20
:1000300084E08EBFD4E0F4E05F2EA89584B7082E4C
:10004000877F84BF88E1992781BD91BDEEEFF3E002
:10005000A0E6B0E088278D933197E9F766248FEF0B
:1000600087BB8FEF84BB80E081BB8E9A88E082BD26
:1000700085E085BD79B7706479BF7894AFE6B0E06C
:10008000ECE9F4E04ED139D170917B007068709347
:100090007B0070917B00706470937B0070917B009B
:1000A000706270937B0070917B00706170937B0035
:1000B00080E08093790004D084D0FDCFF894FFCF06
:1000C000849930C0A9E7B0E08C918F5F8C93009148
:1000D0007900023009F006C070917B007F77709341
:1000E0007B0005C070917B00706870937B0000916D
:1000F0007900013009F006C070917B007F7E70931B
:100100007B0005C070917B00706170937B00A6D06E
:1001100000917900023010F009F001C003C080E0C6
:100120008093790000917900013009F022C0809914
:1001300010C0A2E6B0E08C918F5F8C9300916200BA
:10014000073110F009F001C003C080E08093620025
:1001500085D087990EC080916200815080936200A3
:1001600000916200013008F003C087E180936200D3
:1001700075D000917900023009F022C0809910C03A
:10018000A1E6B0E08C918F5F8C93009161000B33FE
:1001900010F009F001C003C080E0809361005ED0E0
:1001A00087990EC080916100815080936100009119
:1001B0006100013008F003C08BE3809361004ED0F2
:1001C000089578E075BBABE7B0E08C9187FBA2E3C4
:1001D000B0E08C9186F98C93009161004AE04ED199
:1001E000A8E7B0E08C934CD074E075BBABE7B0E00F
:1001F0008C9186FBA2E3B0E08C9186F98C93009100
:1002000061004AE03BD1A8E7B0E00C9339D072E03E
:1002100075BBABE7B0E08C9185FBA2E3B0E08C91BD
:1002200086F98C93009162004AE028D1A8E7B0E0FB
:100230008C9326D071E075BBABE7B0E08C9184FB6A
:10024000A2E3B0E08C9186F98C93009162004AE0C1
:1002500015D1A8E7B0E00C9313D0089580E0809307
:100260007A0000917A00093110F009F008C0A9DF86
:10027000AAE7B0E08C918F5F8C9308F4F2CF0895D9
:10028000EAE9F2E0A8E7B0E08C919927A8E3B0E0B2
:100290005DD085E090E022D00895C0F9A4B0999295
:1002A00082F8809000917900003009F00DC0ABE732
:1002B000B0E08C9185FB882780F9809580FBABE7C7
:1002C000B0E08C9185F98C9308953197F1F70895FA
:1002D000689462F80895E89462F80895EF93FF93A4
:1002E000EE27E82BE92B31F0EAEFF0E03197F1F758
:1002F0000197D1F7FF91EF910895EFE6F0E0A0E6C6
:10030000B0E002C0ADE0BB278681978122D00D937B
:10031000838194811ED00D93808191811AD00D9399
:10032000089504D00D920020E1F70895C895319604
:100330000020089591E005C092E003C094E001C060
:1003400098E0F4DF0D929A95E1F70895E80FF91F10
:10035000F1CF805390530027813018F0065F8A95C3
:10036000FBCF090F0895AF93BF930F939F938F9384
:100370008FB78F93A0E6B0E08C9183958D938C33EB
:1003800009F03DC088278E9311968C9183958D93AB
:100390008C3309F034C088278E9311968C91839505
:1003A0008D93883161F588278E9311968C91839572
:1003B0008D939C910EE1943089F0963079F09930CC
:1003C00069F09B3059F00CE1923039F411969C9110
:1003D0001197937019F4039501C00FE1801778F01D
:1003E00071F081E08E9311968C9183958D938D3071
:1003F00031F481E08E9311968C9183958C938F913B
:100400008FBF8F919F910F91BF91AF910F921F92CC
:100410002F923F924F925F927F92AF92BF920F9333
:100420001F932F933F934F935F936F937F938F937C
:100430009F93AF93BF93CF93DF93EF93FF938FB7C8
:100440008F9330DF8F918FBFFF91EF91DF91CF912D
:10045000BF91AF919F918F917F916F915F914F91DC
:100460003F912F911F910F91BF90AF907F905F9020
:100470004F903F902F901F900F901895FF93881BDF
:10048000F9E0001FFA9511F4FF910895881F841B6D
:1004900018F4840F8894F5CF0894F3CF31323A31B1
:0604A000303A303100008B
:00000001FF
